{
  "contractName": "TenancyCoin",
  "abi": [
    {
      "constant": true,
      "inputs": [],
      "name": "mintingFinished",
      "outputs": [
        {
          "name": "",
          "type": "bool"
        }
      ],
      "payable": false,
      "stateMutability": "view",
      "type": "function"
    },
    {
      "constant": true,
      "inputs": [],
      "name": "name",
      "outputs": [
        {
          "name": "",
          "type": "string"
        }
      ],
      "payable": false,
      "stateMutability": "view",
      "type": "function"
    },
    {
      "constant": false,
      "inputs": [
        {
          "name": "_spender",
          "type": "address"
        },
        {
          "name": "_value",
          "type": "uint256"
        }
      ],
      "name": "approve",
      "outputs": [
        {
          "name": "",
          "type": "bool"
        }
      ],
      "payable": false,
      "stateMutability": "nonpayable",
      "type": "function"
    },
    {
      "constant": true,
      "inputs": [],
      "name": "totalSupply",
      "outputs": [
        {
          "name": "",
          "type": "uint256"
        }
      ],
      "payable": false,
      "stateMutability": "view",
      "type": "function"
    },
    {
      "constant": false,
      "inputs": [
        {
          "name": "_from",
          "type": "address"
        },
        {
          "name": "_to",
          "type": "address"
        },
        {
          "name": "_value",
          "type": "uint256"
        }
      ],
      "name": "transferFrom",
      "outputs": [
        {
          "name": "",
          "type": "bool"
        }
      ],
      "payable": false,
      "stateMutability": "nonpayable",
      "type": "function"
    },
    {
      "constant": true,
      "inputs": [],
      "name": "decimals",
      "outputs": [
        {
          "name": "",
          "type": "uint8"
        }
      ],
      "payable": false,
      "stateMutability": "view",
      "type": "function"
    },
    {
      "constant": false,
      "inputs": [
        {
          "name": "_to",
          "type": "address"
        },
        {
          "name": "_amount",
          "type": "uint256"
        }
      ],
      "name": "mint",
      "outputs": [
        {
          "name": "",
          "type": "bool"
        }
      ],
      "payable": false,
      "stateMutability": "nonpayable",
      "type": "function"
    },
    {
      "constant": false,
      "inputs": [
        {
          "name": "_spender",
          "type": "address"
        },
        {
          "name": "_subtractedValue",
          "type": "uint256"
        }
      ],
      "name": "decreaseApproval",
      "outputs": [
        {
          "name": "",
          "type": "bool"
        }
      ],
      "payable": false,
      "stateMutability": "nonpayable",
      "type": "function"
    },
    {
      "constant": true,
      "inputs": [
        {
          "name": "_owner",
          "type": "address"
        }
      ],
      "name": "balanceOf",
      "outputs": [
        {
          "name": "balance",
          "type": "uint256"
        }
      ],
      "payable": false,
      "stateMutability": "view",
      "type": "function"
    },
    {
      "constant": false,
      "inputs": [],
      "name": "finishMinting",
      "outputs": [
        {
          "name": "",
          "type": "bool"
        }
      ],
      "payable": false,
      "stateMutability": "nonpayable",
      "type": "function"
    },
    {
      "constant": true,
      "inputs": [],
      "name": "owner",
      "outputs": [
        {
          "name": "",
          "type": "address"
        }
      ],
      "payable": false,
      "stateMutability": "view",
      "type": "function"
    },
    {
      "constant": true,
      "inputs": [],
      "name": "symbol",
      "outputs": [
        {
          "name": "",
          "type": "string"
        }
      ],
      "payable": false,
      "stateMutability": "view",
      "type": "function"
    },
    {
      "constant": false,
      "inputs": [
        {
          "name": "_to",
          "type": "address"
        },
        {
          "name": "_value",
          "type": "uint256"
        }
      ],
      "name": "transfer",
      "outputs": [
        {
          "name": "",
          "type": "bool"
        }
      ],
      "payable": false,
      "stateMutability": "nonpayable",
      "type": "function"
    },
    {
      "constant": false,
      "inputs": [
        {
          "name": "_spender",
          "type": "address"
        },
        {
          "name": "_addedValue",
          "type": "uint256"
        }
      ],
      "name": "increaseApproval",
      "outputs": [
        {
          "name": "",
          "type": "bool"
        }
      ],
      "payable": false,
      "stateMutability": "nonpayable",
      "type": "function"
    },
    {
      "constant": true,
      "inputs": [
        {
          "name": "_owner",
          "type": "address"
        },
        {
          "name": "_spender",
          "type": "address"
        }
      ],
      "name": "allowance",
      "outputs": [
        {
          "name": "",
          "type": "uint256"
        }
      ],
      "payable": false,
      "stateMutability": "view",
      "type": "function"
    },
    {
      "constant": false,
      "inputs": [
        {
          "name": "newOwner",
          "type": "address"
        }
      ],
      "name": "transferOwnership",
      "outputs": [],
      "payable": false,
      "stateMutability": "nonpayable",
      "type": "function"
    },
    {
      "anonymous": false,
      "inputs": [
        {
          "indexed": true,
          "name": "to",
          "type": "address"
        },
        {
          "indexed": false,
          "name": "amount",
          "type": "uint256"
        }
      ],
      "name": "Mint",
      "type": "event"
    },
    {
      "anonymous": false,
      "inputs": [],
      "name": "MintFinished",
      "type": "event"
    },
    {
      "anonymous": false,
      "inputs": [
        {
          "indexed": true,
          "name": "previousOwner",
          "type": "address"
        },
        {
          "indexed": true,
          "name": "newOwner",
          "type": "address"
        }
      ],
      "name": "OwnershipTransferred",
      "type": "event"
    },
    {
      "anonymous": false,
      "inputs": [
        {
          "indexed": true,
          "name": "owner",
          "type": "address"
        },
        {
          "indexed": true,
          "name": "spender",
          "type": "address"
        },
        {
          "indexed": false,
          "name": "value",
          "type": "uint256"
        }
      ],
      "name": "Approval",
      "type": "event"
    },
    {
      "anonymous": false,
      "inputs": [
        {
          "indexed": true,
          "name": "from",
          "type": "address"
        },
        {
          "indexed": true,
          "name": "to",
          "type": "address"
        },
        {
          "indexed": false,
          "name": "value",
          "type": "uint256"
        }
      ],
      "name": "Transfer",
      "type": "event"
    }
  ],
  "bytecode": "0x606060409081526003805460a060020a60ff02191690558051908101604052600c81527f54454e414e435920434f494e00000000000000000000000000000000000000006020820152600490805161005b9291602001906100d3565b5060408051908101604052600381527f54454e0000000000000000000000000000000000000000000000000000000000602082015260059080516100a39291602001906100d3565b506006805460ff1916601217905560038054600160a060020a033316600160a060020a031990911617905561016e565b828054600181600116156101000203166002900490600052602060002090601f016020900481019282601f1061011457805160ff1916838001178555610141565b82800160010185558215610141579182015b82811115610141578251825591602001919060010190610126565b5061014d929150610151565b5090565b61016b91905b8082111561014d5760008155600101610157565b90565b610c008061017d6000396000f3006060604052600436106100e55763ffffffff7c010000000000000000000000000000000000000000000000000000000060003504166305d2035b81146100ea57806306fdde0314610111578063095ea7b31461019b57806318160ddd146101bd57806323b872dd146101e2578063313ce5671461020a57806340c10f1914610233578063661884631461025557806370a08231146102775780637d64bcb4146102965780638da5cb5b146102a957806395d89b41146102d8578063a9059cbb146102eb578063d73dd6231461030d578063dd62ed3e1461032f578063f2fde38b14610354575b600080fd5b34156100f557600080fd5b6100fd610375565b604051901515815260200160405180910390f35b341561011c57600080fd5b610124610385565b60405160208082528190810183818151815260200191508051906020019080838360005b83811015610160578082015183820152602001610148565b50505050905090810190601f16801561018d5780820380516001836020036101000a031916815260200191505b509250505060405180910390f35b34156101a657600080fd5b6100fd600160a060020a0360043516602435610423565b34156101c857600080fd5b6101d061048f565b60405190815260200160405180910390f35b34156101ed57600080fd5b6100fd600160a060020a0360043581169060243516604435610495565b341561021557600080fd5b61021d610617565b60405160ff909116815260200160405180910390f35b341561023e57600080fd5b6100fd600160a060020a0360043516602435610620565b341561026057600080fd5b6100fd600160a060020a036004351660243561072d565b341561028257600080fd5b6101d0600160a060020a0360043516610827565b34156102a157600080fd5b6100fd610842565b34156102b457600080fd5b6102bc6108cd565b604051600160a060020a03909116815260200160405180910390f35b34156102e357600080fd5b6101246108dc565b34156102f657600080fd5b6100fd600160a060020a0360043516602435610947565b341561031857600080fd5b6100fd600160a060020a0360043516602435610a42565b341561033a57600080fd5b6101d0600160a060020a0360043581169060243516610ae6565b341561035f57600080fd5b610373600160a060020a0360043516610b11565b005b60035460a060020a900460ff1681565b60048054600181600116156101000203166002900480601f01602080910402602001604051908101604052809291908181526020018280546001816001161561010002031660029004801561041b5780601f106103f05761010080835404028352916020019161041b565b820191906000526020600020905b8154815290600101906020018083116103fe57829003601f168201915b505050505081565b600160a060020a03338116600081815260026020908152604080832094871680845294909152808220859055909291907f8c5be1e5ebec7d5bd14f71427d1e84f3dd0314c0f7b2291e5b200ac8c7c3b9259085905190815260200160405180910390a350600192915050565b60005481565b6000600160a060020a03831615156104ac57600080fd5b600160a060020a0384166000908152600160205260409020548211156104d157600080fd5b600160a060020a038085166000908152600260209081526040808320339094168352929052205482111561050457600080fd5b600160a060020a03841660009081526001602052604090205461052d908363ffffffff610bac16565b600160a060020a038086166000908152600160205260408082209390935590851681522054610562908363ffffffff610bbe16565b600160a060020a038085166000908152600160209081526040808320949094558783168252600281528382203390931682529190915220546105aa908363ffffffff610bac16565b600160a060020a03808616600081815260026020908152604080832033861684529091529081902093909355908516917fddf252ad1be2c89b69c2b068fc378daa952ba7f163c4a11628f55a4df523b3ef9085905190815260200160405180910390a35060019392505050565b60065460ff1681565b60035460009033600160a060020a0390811691161461063e57600080fd5b60035460a060020a900460ff161561065557600080fd5b600054610668908363ffffffff610bbe16565b6000908155600160a060020a038416815260016020526040902054610693908363ffffffff610bbe16565b600160a060020a0384166000818152600160205260409081902092909255907f0f6798a560793a54c3bcfe86a93cde1e73087d944c0ea20544137d41213968859084905190815260200160405180910390a2600160a060020a03831660007fddf252ad1be2c89b69c2b068fc378daa952ba7f163c4a11628f55a4df523b3ef8460405190815260200160405180910390a350600192915050565b600160a060020a0333811660009081526002602090815260408083209386168352929052908120548083111561078a57600160a060020a0333811660009081526002602090815260408083209388168352929052908120556107c1565b61079a818463ffffffff610bac16565b600160a060020a033381166000908152600260209081526040808320938916835292905220555b600160a060020a0333811660008181526002602090815260408083209489168084529490915290819020547f8c5be1e5ebec7d5bd14f71427d1e84f3dd0314c0f7b2291e5b200ac8c7c3b925915190815260200160405180910390a35060019392505050565b600160a060020a031660009081526001602052604090205490565b60035460009033600160a060020a0390811691161461086057600080fd5b60035460a060020a900460ff161561087757600080fd5b6003805474ff0000000000000000000000000000000000000000191660a060020a1790557fae5184fba832cb2b1f702aca6117b8d265eaf03ad33eb133f19dde0f5920fa0860405160405180910390a150600190565b600354600160a060020a031681565b60058054600181600116156101000203166002900480601f01602080910402602001604051908101604052809291908181526020018280546001816001161561010002031660029004801561041b5780601f106103f05761010080835404028352916020019161041b565b6000600160a060020a038316151561095e57600080fd5b600160a060020a03331660009081526001602052604090205482111561098357600080fd5b600160a060020a0333166000908152600160205260409020546109ac908363ffffffff610bac16565b600160a060020a0333811660009081526001602052604080822093909355908516815220546109e1908363ffffffff610bbe16565b600160a060020a0380851660008181526001602052604090819020939093559133909116907fddf252ad1be2c89b69c2b068fc378daa952ba7f163c4a11628f55a4df523b3ef9085905190815260200160405180910390a350600192915050565b600160a060020a033381166000908152600260209081526040808320938616835292905290812054610a7a908363ffffffff610bbe16565b600160a060020a0333811660008181526002602090815260408083209489168084529490915290819020849055919290917f8c5be1e5ebec7d5bd14f71427d1e84f3dd0314c0f7b2291e5b200ac8c7c3b92591905190815260200160405180910390a350600192915050565b600160a060020a03918216600090815260026020908152604080832093909416825291909152205490565b60035433600160a060020a03908116911614610b2c57600080fd5b600160a060020a0381161515610b4157600080fd5b600354600160a060020a0380831691167f8be0079c531659141344cd1fd0a4f28419497f9722a3daafe3b4186f6b6457e060405160405180910390a36003805473ffffffffffffffffffffffffffffffffffffffff1916600160a060020a0392909216919091179055565b600082821115610bb857fe5b50900390565b600082820183811015610bcd57fe5b93925050505600a165627a7a723058209a2b396a01a59396a5f151e56c378b413eaebd070517f783803f9f21783c49fa0029",
  "source": "pragma solidity ^0.4.13;\r\n\r\nimport 'zeppelin-solidity/contracts/token/MintableToken.sol';\r\n\r\ncontract TenancyCoin is MintableToken {\r\n  string public name = \"TENANCY COIN\";\r\n  string public symbol = \"TEN\";\r\n  uint8 public decimals = 18;\r\n}",
  "sourcePath": "C:\\Users\\Flinn Dolman\\TenancyAgreementVerifier\\contracts\\TenancyCoin.sol",
  "compiler": {
    "name": "solc",
    "version": "0.4.18+commit.9cf6e910.Emscripten.clang"
  },
  "schemaVersion": "1.0.1",
  "updatedAt": "2018-01-14T05:54:24.543Z"
}