{
  "contractName": "TenancyContract",
  "abi": [
    {
      "constant": false,
      "inputs": [],
      "name": "pay",
      "outputs": [],
      "payable": true,
      "stateMutability": "payable",
      "type": "function"
    },
    {
      "constant": false,
      "inputs": [
        {
          "name": "lord",
          "type": "address"
        }
      ],
      "name": "setLandlord",
      "outputs": [],
      "payable": false,
      "stateMutability": "nonpayable",
      "type": "function"
    },
    {
      "constant": true,
      "inputs": [
        {
          "name": "",
          "type": "address"
        }
      ],
      "name": "decisionMap",
      "outputs": [
        {
          "name": "",
          "type": "bool"
        }
      ],
      "payable": false,
      "stateMutability": "view",
      "type": "function"
    },
    {
      "constant": false,
      "inputs": [
        {
          "name": "ourAddress",
          "type": "address"
        }
      ],
      "name": "withdrawFunds",
      "outputs": [],
      "payable": false,
      "stateMutability": "nonpayable",
      "type": "function"
    },
    {
      "constant": false,
      "inputs": [
        {
          "name": "t",
          "type": "address"
        },
        {
          "name": "nameToAdd",
          "type": "bytes32"
        }
      ],
      "name": "addTenant",
      "outputs": [],
      "payable": false,
      "stateMutability": "nonpayable",
      "type": "function"
    },
    {
      "constant": false,
      "inputs": [
        {
          "name": "apparantDetails",
          "type": "string"
        },
        {
          "name": "atenantAddress",
          "type": "address"
        }
      ],
      "name": "beginClaim",
      "outputs": [
        {
          "name": "",
          "type": "uint256"
        }
      ],
      "payable": false,
      "stateMutability": "nonpayable",
      "type": "function"
    },
    {
      "constant": false,
      "inputs": [
        {
          "name": "claimID",
          "type": "uint256"
        }
      ],
      "name": "makeDecision",
      "outputs": [],
      "payable": false,
      "stateMutability": "nonpayable",
      "type": "function"
    },
    {
      "constant": false,
      "inputs": [
        {
          "name": "_address",
          "type": "address"
        },
        {
          "name": "claimID",
          "type": "uint256"
        }
      ],
      "name": "renewVote",
      "outputs": [],
      "payable": false,
      "stateMutability": "nonpayable",
      "type": "function"
    },
    {
      "constant": true,
      "inputs": [],
      "name": "owner",
      "outputs": [
        {
          "name": "",
          "type": "address"
        }
      ],
      "payable": false,
      "stateMutability": "view",
      "type": "function"
    },
    {
      "constant": false,
      "inputs": [
        {
          "name": "_tenantAddress",
          "type": "address"
        },
        {
          "name": "vote",
          "type": "bool"
        }
      ],
      "name": "arbitrate",
      "outputs": [],
      "payable": false,
      "stateMutability": "nonpayable",
      "type": "function"
    },
    {
      "constant": true,
      "inputs": [
        {
          "name": "",
          "type": "uint256"
        }
      ],
      "name": "claims",
      "outputs": [
        {
          "name": "claimStatus",
          "type": "bool"
        },
        {
          "name": "claimDetails",
          "type": "string"
        },
        {
          "name": "claimEnd",
          "type": "uint256"
        },
        {
          "name": "tenantAddress",
          "type": "address"
        }
      ],
      "payable": false,
      "stateMutability": "view",
      "type": "function"
    },
    {
      "constant": true,
      "inputs": [],
      "name": "bondPrice",
      "outputs": [
        {
          "name": "",
          "type": "uint256"
        }
      ],
      "payable": false,
      "stateMutability": "view",
      "type": "function"
    },
    {
      "constant": true,
      "inputs": [],
      "name": "landlord",
      "outputs": [
        {
          "name": "",
          "type": "address"
        }
      ],
      "payable": false,
      "stateMutability": "view",
      "type": "function"
    },
    {
      "constant": false,
      "inputs": [],
      "name": "tenantLeave",
      "outputs": [],
      "payable": false,
      "stateMutability": "nonpayable",
      "type": "function"
    },
    {
      "constant": true,
      "inputs": [
        {
          "name": "_address",
          "type": "address"
        }
      ],
      "name": "getTenant",
      "outputs": [
        {
          "name": "",
          "type": "bytes32"
        },
        {
          "name": "",
          "type": "uint256"
        },
        {
          "name": "",
          "type": "bool"
        }
      ],
      "payable": false,
      "stateMutability": "view",
      "type": "function"
    },
    {
      "constant": true,
      "inputs": [],
      "name": "noOfClaims",
      "outputs": [
        {
          "name": "",
          "type": "uint256"
        }
      ],
      "payable": false,
      "stateMutability": "view",
      "type": "function"
    },
    {
      "constant": true,
      "inputs": [
        {
          "name": "",
          "type": "address"
        }
      ],
      "name": "token",
      "outputs": [
        {
          "name": "",
          "type": "address"
        },
        {
          "name": "paidBond",
          "type": "uint256"
        },
        {
          "name": "hasVal",
          "type": "bool"
        },
        {
          "name": "voteCount",
          "type": "uint256"
        }
      ],
      "payable": false,
      "stateMutability": "view",
      "type": "function"
    },
    {
      "inputs": [
        {
          "name": "",
          "type": "address"
        }
      ],
      "payable": false,
      "stateMutability": "view",
      "type": "function",
      "constant": true,
      "name": "tenants",
      "outputs": [
        {
          "name": "name",
          "type": "bytes32"
        },
        {
          "name": "paidBond",
          "type": "uint256"
        },
        {
          "name": "hasVal",
          "type": "bool"
        },
        {
          "name": "voteCount",
          "type": "uint256"
        }
      ]
    },
    {
      "anonymous": false,
      "inputs": [
        {
          "indexed": false,
          "name": "_bondPrice",
          "type": "uint256"
        },
        {
          "indexed": false,
          "name": "amount",
          "type": "uint256"
        }
      ],
      "name": "LogPaymentMade",
      "type": "constructor",
      "payable": false,
      "stateMutability": "nonpayable"
    },
    {
      "anonymous": false,
      "inputs": [
        {
          "indexed": false,
          "name": "accountAddress",
          "type": "address"
        },
        {
          "indexed": false,
          "name": "amount",
          "type": "uint256"
        }
      ],
      "name": "LogPaymentMade",
      "type": "event"
    },
    {
      "anonymous": false,
      "inputs": [
        {
          "indexed": false,
          "name": "tenantAddress",
          "type": "address"
        },
        {
          "indexed": false,
          "name": "nameToAdd",
          "type": "bytes32"
        }
      ],
      "name": "LogAddTenant",
      "type": "event"
    }
  ],
  "bytecode": "0x606060405260008055600060015560006007556000600855341561002257600080fd5b604051602080612702833981016040528080516006819055600a8054600160a060020a03191633600160a060020a0316179055915061006e90506401000000006100948102610acf1704565b60098054600160a060020a031916600160a060020a0392909216919091179055506100c9565b600061009e6100b9565b604051809103906000f08015156100b457600080fd5b905090565b604051610d7d8061198583390190565b6118ad806100d86000396000f3006060604052600436106100fb5763ffffffff7c01000000000000000000000000000000000000000000000000000000006000350416631b9265b88114610100578063498569451461010a578063543c99e21461012957806368742da61461015c5780636cf962531461017b578063797b913e1461019d57806380c1367e1461020b57806381944cb4146102215780638da5cb5b146102435780638eb7115414610272578063a888c2cd14610296578063d7ccfb0b14610355578063dc1997ea14610368578063dde162121461037b578063e5cdb4881461038e578063ec07a13e146103d3578063fc0c546a146103e6578063fd9153a3146103f9575b600080fd5b610108610446565b005b341561011557600080fd5b610108600160a060020a03600435166104b1565b341561013457600080fd5b610148600160a060020a03600435166104e0565b604051901515815260200160405180910390f35b341561016757600080fd5b610108600160a060020a03600435166104f5565b341561018657600080fd5b610108600160a060020a036004351660243561054d565b34156101a857600080fd5b6101f960046024813581810190830135806020601f8201819004810201604051908101604052818152929190602084018383808284375094965050509235600160a060020a03169250610649915050565b60405190815260200160405180910390f35b341561021657600080fd5b610108600435610700565b341561022c57600080fd5b610108600160a060020a03600435166024356107ab565b341561024e57600080fd5b6102566107ff565b604051600160a060020a03909116815260200160405180910390f35b341561027d57600080fd5b610108600160a060020a0360043516602435151561080e565b34156102a157600080fd5b6102ac60043561086e565b604051841515815260408101839052600160a060020a03821660608201526080602082018181528554600260001961010060018416150201909116049183018290529060a0830190869080156103435780601f1061031857610100808354040283529160200191610343565b820191906000526020600020905b81548152906001019060200180831161032657829003601f168201915b50509550505050505060405180910390f35b341561036057600080fd5b6101f96108a2565b341561037357600080fd5b6102566108a8565b341561038657600080fd5b6101086108b7565b341561039957600080fd5b6103ad600160a060020a03600435166108b9565b604051928352602083019190915215156040808301919091526060909101905180910390f35b34156103de57600080fd5b6101f96108e7565b34156103f157600080fd5b6102566108ed565b341561040457600080fd5b610418600160a060020a03600435166108fc565b6040519384526020840192909252151560408084019190915260608301919091526080909101905180910390f35b33600160a060020a038116600090815260036020526040908190206001018054349081019091557f9681ff80e7509a85367bbe3e41c00e9a48dc4d0bedb61321690e83e6f8489fd8929151600160a060020a03909216825260208201526040908101905180910390a1565b6005805473ffffffffffffffffffffffffffffffffffffffff1916600160a060020a0392909216919091179055565b60046020526000908152604090205460ff1681565b600a5433600160a060020a0390811691161461051057600080fd5b80600160a060020a03166108fc6001549081150290604051600060405180830381858888f19350505050151561054557600080fd5b506000600155565b60055433600160a060020a0390811691161480156105875750600160a060020a03821660009081526003602052604090206002015460ff16155b151561059257600080fd5b7f965564986c9ff7514ae58bb5f0979424426932abca6bd73b44dec85e443bc4b18282604051600160a060020a03909216825260208201526040908101905180910390a160806040519081016040908152828252600654602080840191909152600182840152600060608401819052600160a060020a03861681526003909152208151815560208201518160010155604082015160028201805460ff19169115159190911790556060820151600490910155505050565b60006080604051908101604090815260008083526020808401879052600a430183850152600160a060020a03861660608501528154825260029052208151815460ff19169015151781556020820151816001019080516106ad929160200190610a34565b50604082015181600201556060820151600391909101805473ffffffffffffffffffffffffffffffffffffffff1916600160a060020a039092169190911790555050600080546001810190915592915050565b60055433600160a060020a0390811691161461071b57600080fd5b600081815260026020819052604090912001544390101561073b57600080fd5b6007546008541061079f576000818152600260209081526040808320600390810154600160a060020a0390811685529252918290206001015433909116916108fc821502919051600060405180830381858888f19350505050151561079f57600080fd5b6107a881610929565b50565b60008181526002602081905260409091200154439010156107cb57600080fd5b50600160a060020a03908116600090815260036020818152604080842033909516845293909101905220805460ff19169055565b600a54600160a060020a031681565b8015156108235760088054600101905561082d565b6007805460010190555b600160a060020a03808316600090815260036020818152604080842033909516845293909101905220805460ff1916600117905561086a8261094c565b5050565b6002602081905260009182526040909120805491810154600382015460ff90931692600190920191600160a060020a031684565b60065481565b600554600160a060020a031681565b565b600160a060020a0316600090815260036020526040902080546001820154600290920154909260ff90911690565b60005481565b600954600160a060020a031681565b60036020526000908152604090208054600182015460028301546004909301549192909160ff9091169084565b6000908152600260205260408120805460ff191660011790556007819055600855565b600160a060020a03811660009081526003602052604090206001015460649060018054929091049091019055600954600160a060020a03166340c10f1933600a6000604051602001526040517c010000000000000000000000000000000000000000000000000000000063ffffffff8516028152600160a060020a0390921660048301526024820152604401602060405180830381600087803b15156109f157600080fd5b6102c65a03f11515610a0257600080fd5b5050506040518051505060018054600160a060020a039092166000908152600360205260409020018054919091039055565b828054600181600116156101000203166002900490600052602060002090601f016020900481019282601f10610a7557805160ff1916838001178555610aa2565b82800160010185558215610aa2579182015b82811115610aa2578251825591602001919060010190610a87565b50610aae929150610ab2565b5090565b610acc91905b80821115610aae5760008155600101610ab8565b90565b6000610ad9610af4565b604051809103906000f0801515610aef57600080fd5b905090565b604051610d7d80610b05833901905600606060409081526003805460a060020a60ff02191690558051908101604052600c81527f54454e414e435920434f494e00000000000000000000000000000000000000006020820152600490805161005b9291602001906100d3565b5060408051908101604052600381527f54454e0000000000000000000000000000000000000000000000000000000000602082015260059080516100a39291602001906100d3565b506006805460ff1916601217905560038054600160a060020a033316600160a060020a031990911617905561016e565b828054600181600116156101000203166002900490600052602060002090601f016020900481019282601f1061011457805160ff1916838001178555610141565b82800160010185558215610141579182015b82811115610141578251825591602001919060010190610126565b5061014d929150610151565b5090565b61016b91905b8082111561014d5760008155600101610157565b90565b610c008061017d6000396000f3006060604052600436106100e55763ffffffff7c010000000000000000000000000000000000000000000000000000000060003504166305d2035b81146100ea57806306fdde0314610111578063095ea7b31461019b57806318160ddd146101bd57806323b872dd146101e2578063313ce5671461020a57806340c10f1914610233578063661884631461025557806370a08231146102775780637d64bcb4146102965780638da5cb5b146102a957806395d89b41146102d8578063a9059cbb146102eb578063d73dd6231461030d578063dd62ed3e1461032f578063f2fde38b14610354575b600080fd5b34156100f557600080fd5b6100fd610375565b604051901515815260200160405180910390f35b341561011c57600080fd5b610124610385565b60405160208082528190810183818151815260200191508051906020019080838360005b83811015610160578082015183820152602001610148565b50505050905090810190601f16801561018d5780820380516001836020036101000a031916815260200191505b509250505060405180910390f35b34156101a657600080fd5b6100fd600160a060020a0360043516602435610423565b34156101c857600080fd5b6101d061048f565b60405190815260200160405180910390f35b34156101ed57600080fd5b6100fd600160a060020a0360043581169060243516604435610495565b341561021557600080fd5b61021d610617565b60405160ff909116815260200160405180910390f35b341561023e57600080fd5b6100fd600160a060020a0360043516602435610620565b341561026057600080fd5b6100fd600160a060020a036004351660243561072d565b341561028257600080fd5b6101d0600160a060020a0360043516610827565b34156102a157600080fd5b6100fd610842565b34156102b457600080fd5b6102bc6108cd565b604051600160a060020a03909116815260200160405180910390f35b34156102e357600080fd5b6101246108dc565b34156102f657600080fd5b6100fd600160a060020a0360043516602435610947565b341561031857600080fd5b6100fd600160a060020a0360043516602435610a42565b341561033a57600080fd5b6101d0600160a060020a0360043581169060243516610ae6565b341561035f57600080fd5b610373600160a060020a0360043516610b11565b005b60035460a060020a900460ff1681565b60048054600181600116156101000203166002900480601f01602080910402602001604051908101604052809291908181526020018280546001816001161561010002031660029004801561041b5780601f106103f05761010080835404028352916020019161041b565b820191906000526020600020905b8154815290600101906020018083116103fe57829003601f168201915b505050505081565b600160a060020a03338116600081815260026020908152604080832094871680845294909152808220859055909291907f8c5be1e5ebec7d5bd14f71427d1e84f3dd0314c0f7b2291e5b200ac8c7c3b9259085905190815260200160405180910390a350600192915050565b60005481565b6000600160a060020a03831615156104ac57600080fd5b600160a060020a0384166000908152600160205260409020548211156104d157600080fd5b600160a060020a038085166000908152600260209081526040808320339094168352929052205482111561050457600080fd5b600160a060020a03841660009081526001602052604090205461052d908363ffffffff610bac16565b600160a060020a038086166000908152600160205260408082209390935590851681522054610562908363ffffffff610bbe16565b600160a060020a038085166000908152600160209081526040808320949094558783168252600281528382203390931682529190915220546105aa908363ffffffff610bac16565b600160a060020a03808616600081815260026020908152604080832033861684529091529081902093909355908516917fddf252ad1be2c89b69c2b068fc378daa952ba7f163c4a11628f55a4df523b3ef9085905190815260200160405180910390a35060019392505050565b60065460ff1681565b60035460009033600160a060020a0390811691161461063e57600080fd5b60035460a060020a900460ff161561065557600080fd5b600054610668908363ffffffff610bbe16565b6000908155600160a060020a038416815260016020526040902054610693908363ffffffff610bbe16565b600160a060020a0384166000818152600160205260409081902092909255907f0f6798a560793a54c3bcfe86a93cde1e73087d944c0ea20544137d41213968859084905190815260200160405180910390a2600160a060020a03831660007fddf252ad1be2c89b69c2b068fc378daa952ba7f163c4a11628f55a4df523b3ef8460405190815260200160405180910390a350600192915050565b600160a060020a0333811660009081526002602090815260408083209386168352929052908120548083111561078a57600160a060020a0333811660009081526002602090815260408083209388168352929052908120556107c1565b61079a818463ffffffff610bac16565b600160a060020a033381166000908152600260209081526040808320938916835292905220555b600160a060020a0333811660008181526002602090815260408083209489168084529490915290819020547f8c5be1e5ebec7d5bd14f71427d1e84f3dd0314c0f7b2291e5b200ac8c7c3b925915190815260200160405180910390a35060019392505050565b600160a060020a031660009081526001602052604090205490565b60035460009033600160a060020a0390811691161461086057600080fd5b60035460a060020a900460ff161561087757600080fd5b6003805474ff0000000000000000000000000000000000000000191660a060020a1790557fae5184fba832cb2b1f702aca6117b8d265eaf03ad33eb133f19dde0f5920fa0860405160405180910390a150600190565b600354600160a060020a031681565b60058054600181600116156101000203166002900480601f01602080910402602001604051908101604052809291908181526020018280546001816001161561010002031660029004801561041b5780601f106103f05761010080835404028352916020019161041b565b6000600160a060020a038316151561095e57600080fd5b600160a060020a03331660009081526001602052604090205482111561098357600080fd5b600160a060020a0333166000908152600160205260409020546109ac908363ffffffff610bac16565b600160a060020a0333811660009081526001602052604080822093909355908516815220546109e1908363ffffffff610bbe16565b600160a060020a0380851660008181526001602052604090819020939093559133909116907fddf252ad1be2c89b69c2b068fc378daa952ba7f163c4a11628f55a4df523b3ef9085905190815260200160405180910390a350600192915050565b600160a060020a033381166000908152600260209081526040808320938616835292905290812054610a7a908363ffffffff610bbe16565b600160a060020a0333811660008181526002602090815260408083209489168084529490915290819020849055919290917f8c5be1e5ebec7d5bd14f71427d1e84f3dd0314c0f7b2291e5b200ac8c7c3b92591905190815260200160405180910390a350600192915050565b600160a060020a03918216600090815260026020908152604080832093909416825291909152205490565b60035433600160a060020a03908116911614610b2c57600080fd5b600160a060020a0381161515610b4157600080fd5b600354600160a060020a0380831691167f8be0079c531659141344cd1fd0a4f28419497f9722a3daafe3b4186f6b6457e060405160405180910390a36003805473ffffffffffffffffffffffffffffffffffffffff1916600160a060020a0392909216919091179055565b600082821115610bb857fe5b50900390565b600082820183811015610bcd57fe5b93925050505600a165627a7a723058209a2b396a01a59396a5f151e56c378b413eaebd070517f783803f9f21783c49fa0029a165627a7a72305820c7e216751a5c6eddfe07da05c1bec03b3d090f50162e1ec7191a819afe8d9ad40029606060409081526003805460a060020a60ff02191690558051908101604052600c81527f54454e414e435920434f494e00000000000000000000000000000000000000006020820152600490805161005b9291602001906100d3565b5060408051908101604052600381527f54454e0000000000000000000000000000000000000000000000000000000000602082015260059080516100a39291602001906100d3565b506006805460ff1916601217905560038054600160a060020a033316600160a060020a031990911617905561016e565b828054600181600116156101000203166002900490600052602060002090601f016020900481019282601f1061011457805160ff1916838001178555610141565b82800160010185558215610141579182015b82811115610141578251825591602001919060010190610126565b5061014d929150610151565b5090565b61016b91905b8082111561014d5760008155600101610157565b90565b610c008061017d6000396000f3006060604052600436106100e55763ffffffff7c010000000000000000000000000000000000000000000000000000000060003504166305d2035b81146100ea57806306fdde0314610111578063095ea7b31461019b57806318160ddd146101bd57806323b872dd146101e2578063313ce5671461020a57806340c10f1914610233578063661884631461025557806370a08231146102775780637d64bcb4146102965780638da5cb5b146102a957806395d89b41146102d8578063a9059cbb146102eb578063d73dd6231461030d578063dd62ed3e1461032f578063f2fde38b14610354575b600080fd5b34156100f557600080fd5b6100fd610375565b604051901515815260200160405180910390f35b341561011c57600080fd5b610124610385565b60405160208082528190810183818151815260200191508051906020019080838360005b83811015610160578082015183820152602001610148565b50505050905090810190601f16801561018d5780820380516001836020036101000a031916815260200191505b509250505060405180910390f35b34156101a657600080fd5b6100fd600160a060020a0360043516602435610423565b34156101c857600080fd5b6101d061048f565b60405190815260200160405180910390f35b34156101ed57600080fd5b6100fd600160a060020a0360043581169060243516604435610495565b341561021557600080fd5b61021d610617565b60405160ff909116815260200160405180910390f35b341561023e57600080fd5b6100fd600160a060020a0360043516602435610620565b341561026057600080fd5b6100fd600160a060020a036004351660243561072d565b341561028257600080fd5b6101d0600160a060020a0360043516610827565b34156102a157600080fd5b6100fd610842565b34156102b457600080fd5b6102bc6108cd565b604051600160a060020a03909116815260200160405180910390f35b34156102e357600080fd5b6101246108dc565b34156102f657600080fd5b6100fd600160a060020a0360043516602435610947565b341561031857600080fd5b6100fd600160a060020a0360043516602435610a42565b341561033a57600080fd5b6101d0600160a060020a0360043581169060243516610ae6565b341561035f57600080fd5b610373600160a060020a0360043516610b11565b005b60035460a060020a900460ff1681565b60048054600181600116156101000203166002900480601f01602080910402602001604051908101604052809291908181526020018280546001816001161561010002031660029004801561041b5780601f106103f05761010080835404028352916020019161041b565b820191906000526020600020905b8154815290600101906020018083116103fe57829003601f168201915b505050505081565b600160a060020a03338116600081815260026020908152604080832094871680845294909152808220859055909291907f8c5be1e5ebec7d5bd14f71427d1e84f3dd0314c0f7b2291e5b200ac8c7c3b9259085905190815260200160405180910390a350600192915050565b60005481565b6000600160a060020a03831615156104ac57600080fd5b600160a060020a0384166000908152600160205260409020548211156104d157600080fd5b600160a060020a038085166000908152600260209081526040808320339094168352929052205482111561050457600080fd5b600160a060020a03841660009081526001602052604090205461052d908363ffffffff610bac16565b600160a060020a038086166000908152600160205260408082209390935590851681522054610562908363ffffffff610bbe16565b600160a060020a038085166000908152600160209081526040808320949094558783168252600281528382203390931682529190915220546105aa908363ffffffff610bac16565b600160a060020a03808616600081815260026020908152604080832033861684529091529081902093909355908516917fddf252ad1be2c89b69c2b068fc378daa952ba7f163c4a11628f55a4df523b3ef9085905190815260200160405180910390a35060019392505050565b60065460ff1681565b60035460009033600160a060020a0390811691161461063e57600080fd5b60035460a060020a900460ff161561065557600080fd5b600054610668908363ffffffff610bbe16565b6000908155600160a060020a038416815260016020526040902054610693908363ffffffff610bbe16565b600160a060020a0384166000818152600160205260409081902092909255907f0f6798a560793a54c3bcfe86a93cde1e73087d944c0ea20544137d41213968859084905190815260200160405180910390a2600160a060020a03831660007fddf252ad1be2c89b69c2b068fc378daa952ba7f163c4a11628f55a4df523b3ef8460405190815260200160405180910390a350600192915050565b600160a060020a0333811660009081526002602090815260408083209386168352929052908120548083111561078a57600160a060020a0333811660009081526002602090815260408083209388168352929052908120556107c1565b61079a818463ffffffff610bac16565b600160a060020a033381166000908152600260209081526040808320938916835292905220555b600160a060020a0333811660008181526002602090815260408083209489168084529490915290819020547f8c5be1e5ebec7d5bd14f71427d1e84f3dd0314c0f7b2291e5b200ac8c7c3b925915190815260200160405180910390a35060019392505050565b600160a060020a031660009081526001602052604090205490565b60035460009033600160a060020a0390811691161461086057600080fd5b60035460a060020a900460ff161561087757600080fd5b6003805474ff0000000000000000000000000000000000000000191660a060020a1790557fae5184fba832cb2b1f702aca6117b8d265eaf03ad33eb133f19dde0f5920fa0860405160405180910390a150600190565b600354600160a060020a031681565b60058054600181600116156101000203166002900480601f01602080910402602001604051908101604052809291908181526020018280546001816001161561010002031660029004801561041b5780601f106103f05761010080835404028352916020019161041b565b6000600160a060020a038316151561095e57600080fd5b600160a060020a03331660009081526001602052604090205482111561098357600080fd5b600160a060020a0333166000908152600160205260409020546109ac908363ffffffff610bac16565b600160a060020a0333811660009081526001602052604080822093909355908516815220546109e1908363ffffffff610bbe16565b600160a060020a0380851660008181526001602052604090819020939093559133909116907fddf252ad1be2c89b69c2b068fc378daa952ba7f163c4a11628f55a4df523b3ef9085905190815260200160405180910390a350600192915050565b600160a060020a033381166000908152600260209081526040808320938616835292905290812054610a7a908363ffffffff610bbe16565b600160a060020a0333811660008181526002602090815260408083209489168084529490915290819020849055919290917f8c5be1e5ebec7d5bd14f71427d1e84f3dd0314c0f7b2291e5b200ac8c7c3b92591905190815260200160405180910390a350600192915050565b600160a060020a03918216600090815260026020908152604080832093909416825291909152205490565b60035433600160a060020a03908116911614610b2c57600080fd5b600160a060020a0381161515610b4157600080fd5b600354600160a060020a0380831691167f8be0079c531659141344cd1fd0a4f28419497f9722a3daafe3b4186f6b6457e060405160405180910390a36003805473ffffffffffffffffffffffffffffffffffffffff1916600160a060020a0392909216919091179055565b600082821115610bb857fe5b50900390565b600082820183811015610bcd57fe5b93925050505600a165627a7a723058209a2b396a01a59396a5f151e56c378b413eaebd070517f783803f9f21783c49fa0029",
  "source": "pragma solidity ^0.4.13;\r\n\r\nimport './TenancyCoin.sol';\r\n\r\ncontract TenancyContract {\r\n\r\n    uint public noOfClaims = 0;   \r\n    uint voterFee = 0;\r\n\r\n    struct Voter {\r\n        bool hasVoted; //default is false\r\n    }\r\n\r\n    struct Tenant {\r\n        bytes32 name;   // short name (up to 32 bytes)\r\n        uint paidBond;\r\n        bool hasVal; // default value is false\r\n        mapping(address => Voter) voters;\r\n        uint voteCount;\r\n    }\r\n\r\n    struct Claim {\r\n        //True == Completed, False == Pending\r\n        bool claimStatus;   \r\n        string claimDetails;\r\n        uint256 claimEnd;\r\n        address tenantAddress;\r\n    }\r\n\r\n    mapping(uint => Claim) public claims;\r\n    mapping(address => Tenant) public tenants;\r\n    mapping(address => bool) public decisionMap;\r\n    address public landlord;\r\n    uint public bondPrice;\r\n    uint256 voteTenant = 0;\r\n    uint256 voteLandOwner = 0;\r\n    TenancyCoin public token;\r\n    address public owner;\r\n\r\n\r\n    event LogPaymentMade(address accountAddress, uint amount);\r\n    event LogAddTenant(address tenantAddress, bytes32 nameToAdd);\r\n\r\n    function TenancyContract(uint _bondPrice){\r\n        bondPrice = _bondPrice;\r\n        owner = msg.sender;\r\n        \r\n        token = createTokenContract();\r\n\r\n    }\r\n  \r\n    //We add a tenant to the tenants dictionary. The key of the tenant key-value pair is the address of the tenant.\r\n    function addTenant(address t, bytes32 nameToAdd) {\r\n        require((msg.sender == landlord) && (!tenants[t].hasVal));\r\n\r\n\r\n        LogAddTenant(t, nameToAdd);\r\n        tenants[t] = Tenant({\r\n            name: nameToAdd, \r\n            paidBond: bondPrice,\r\n            hasVal: true,\r\n            voteCount: 0\r\n        });\r\n    }\r\n\r\n    //Can only be done by the Landlord\r\n    function beginClaim(string apparantDetails, address atenantAddress) returns (uint){\r\n\r\n        claims[noOfClaims] = Claim({\r\n            claimStatus: false,\r\n            claimDetails: apparantDetails,\r\n            claimEnd: block.number + 10,\r\n            tenantAddress: atenantAddress\r\n        });\r\n\r\n        noOfClaims += 1;\r\n\r\n        //returning the claimId\r\n        return (noOfClaims-1);\r\n    }\r\n\r\n    //Currently, if the pay function is called by a non-tenant, it will still work by creating a new tenant with that key-value pair.\r\n    //That is not how we want it to work however. We must ensure that this function can only be called if the tenant address is a key in tentants.\r\n\r\n    //If msg.value is not defined then it will be 0. (or the caller might get a transaction error).\r\n    function pay() public payable{\r\n        tenants[msg.sender].paidBond += msg.value;\r\n        LogPaymentMade(msg.sender, msg.value);\r\n    }\r\n\r\n    //Returns all the data for a tenant.\r\n    function getTenant(address _address) public constant returns (bytes32, uint, bool) {\r\n        return (tenants[_address].name, tenants[_address].paidBond, tenants[_address].hasVal);\r\n    }\r\n\r\n    //The voting function. Called when a user votes for either the tenant or the landlord.\r\n    //This should only be called by the voter, not the landlord or the tenant.\r\n    //If vote==false, vote is for landowner. If vote==true, vote is for the tenant.\r\n    function arbitrate(address _tenantAddress, bool vote){\r\n\r\n            if(!vote){\r\n                voteLandOwner = voteLandOwner + 1;\r\n            }\r\n\r\n            else {\r\n                voteTenant = voteTenant + 1;\r\n            }\r\n\r\n        tenants[_tenantAddress].voters[msg.sender].hasVoted = true;\r\n        //The voter gets paid for making their vote.\r\n        _payVoter(_tenantAddress);\r\n\r\n    }\r\n\r\n    //Called when a disagreement has occurred between the tenant and the landlord. After voters are done voting on the issue, a decision is made based on the vote results.\r\n    //ONLY RUN BY THE LANDLORD\r\n    function makeDecision(uint claimID) onlyLandlord{\r\n        //TODO: alter require so that the competition ends after a fixed amount of time not a voteCount\r\n       require(claims[claimID].claimEnd >= block.number);\r\n    \r\n        if(voteLandOwner >= voteTenant){\r\n            //transfer money to the person that calls makeDecision Currently\r\n            msg.sender.transfer(tenants[claims[claimID].tenantAddress].paidBond);\r\n            //decisionMap[msg.sender] = true;\r\n        }\r\n        //TODO: fix clean\r\n        _clean(claimID);\r\n\r\n    }\r\n\r\n    //TODO:when a tenenant leaves give them deposit back\r\n    function tenantLeave(){\r\n\r\n    }\r\n\r\n\r\n    //Empties the votes\r\n    //TODO:MAKEITWORK\r\n    function _clean(uint claimID) internal {\r\n\r\n        claims[claimID].claimStatus = true;\r\n\r\n        voteTenant = 0;\r\n        voteLandOwner = 0;\r\n\r\n    }\r\n\r\n    //Empties the \"voters\" dictionary.\r\n    //As this is called by the tenant when a new dispute occurs, we need the tenant address to be passed in as an argument.\r\n    function renewVote(address _address, uint claimID){\r\n        require(claims[claimID].claimEnd >= block.number);\r\n        tenants[_address].voters[msg.sender].hasVoted = false;\r\n    }\r\n\r\n    //Each voter gets 1% of the Bond. \r\n    //We reduce \r\n    function _payVoter(address _tenantAddress) internal{\r\n\r\n        //Note: New smartcontract instance per landlord. \r\n        //Voter Fee is only recovered from the landlord as it's the landlord that has the bond/deposit.\r\n        voterFee += tenants[_tenantAddress].paidBond/100;\r\n        token.mint(msg.sender, 10);\r\n\r\n        tenants[_tenantAddress].paidBond -= voterFee;\r\n\r\n    }\r\n\r\n    //Withdraw from landlord after voters get paid. (This is our fee.)\r\n    function withdrawFunds(address ourAddress) onlyOwner{\r\n    \tourAddress.transfer(voterFee);\r\n    \tvoterFee = 0;\r\n\r\n    }\r\n\r\n    function createTokenContract() internal returns (TenancyCoin) {\r\n        return new TenancyCoin();\r\n    }\r\n\r\n    function setLandlord(address lord){\r\n    \tlandlord = lord;\r\n    }\r\n\r\n     modifier onlyOwner {\r\n        require(msg.sender == owner);\r\n        _;\r\n    }\r\n\r\n     modifier onlyLandlord {\r\n        require(msg.sender == landlord);\r\n        _;\r\n    }\r\n\r\n\r\n}",
  "sourcePath": "C:\\Users\\Flinn Dolman\\TenancyAgreementVerifier\\contracts\\TenancyContract.sol",
  "compiler": {
    "name": "solc",
    "version": "0.4.18+commit.9cf6e910.Emscripten.clang"
  },
  "schemaVersion": "1.0.1",
  "updatedAt": "2018-01-14T05:56:34.298Z"
}